{
  "contractName": "TodoList",
  "abi": [
    {
      "anonymous": false,
      "inputs": [
        {
          "indexed": false,
          "internalType": "uint256",
          "name": "id",
          "type": "uint256"
        },
        {
          "indexed": false,
          "internalType": "bool",
          "name": "completed",
          "type": "bool"
        }
      ],
      "name": "TaskCompleted",
      "type": "event"
    },
    {
      "anonymous": false,
      "inputs": [
        {
          "indexed": false,
          "internalType": "uint256",
          "name": "id",
          "type": "uint256"
        },
        {
          "indexed": false,
          "internalType": "address",
          "name": "createdBy",
          "type": "address"
        },
        {
          "indexed": false,
          "internalType": "string",
          "name": "title",
          "type": "string"
        },
        {
          "indexed": false,
          "internalType": "string",
          "name": "description",
          "type": "string"
        },
        {
          "indexed": false,
          "internalType": "bool",
          "name": "completed",
          "type": "bool"
        }
      ],
      "name": "TaskCreated",
      "type": "event"
    },
    {
      "constant": true,
      "inputs": [],
      "name": "taskCount",
      "outputs": [
        {
          "internalType": "uint256",
          "name": "",
          "type": "uint256"
        }
      ],
      "payable": false,
      "stateMutability": "view",
      "type": "function"
    },
    {
      "constant": true,
      "inputs": [
        {
          "internalType": "uint256",
          "name": "",
          "type": "uint256"
        }
      ],
      "name": "tasks",
      "outputs": [
        {
          "internalType": "uint256",
          "name": "id",
          "type": "uint256"
        },
        {
          "internalType": "address",
          "name": "createdBy",
          "type": "address"
        },
        {
          "internalType": "string",
          "name": "title",
          "type": "string"
        },
        {
          "internalType": "string",
          "name": "description",
          "type": "string"
        },
        {
          "internalType": "bool",
          "name": "completed",
          "type": "bool"
        }
      ],
      "payable": false,
      "stateMutability": "view",
      "type": "function"
    },
    {
      "constant": false,
      "inputs": [
        {
          "internalType": "address",
          "name": "_createdBy",
          "type": "address"
        },
        {
          "internalType": "string",
          "name": "_title",
          "type": "string"
        },
        {
          "internalType": "string",
          "name": "_description",
          "type": "string"
        }
      ],
      "name": "createTask",
      "outputs": [],
      "payable": false,
      "stateMutability": "nonpayable",
      "type": "function"
    },
    {
      "constant": false,
      "inputs": [
        {
          "internalType": "uint256",
          "name": "_id",
          "type": "uint256"
        }
      ],
      "name": "toggleCompleted",
      "outputs": [],
      "payable": false,
      "stateMutability": "nonpayable",
      "type": "function"
    }
  ],
  "bytecode": "0x60806040526000805534801561001457600080fd5b5061098b806100246000396000f3fe608060405234801561001057600080fd5b506004361061004c5760003560e01c8063455f502414610051578063540e08a3146100705780638d977672146101ad578063b6cb58a5146102d3575b600080fd5b61006e6004803603602081101561006757600080fd5b50356102ed565b005b61006e6004803603606081101561008657600080fd5b6001600160a01b0382351691908101906040810160208201356401000000008111156100b157600080fd5b8201836020820111156100c357600080fd5b803590602001918460018302840111640100000000831117156100e557600080fd5b91908080601f016020809104026020016040519081016040528093929190818152602001838380828437600092019190915250929594936020810193503591505064010000000081111561013857600080fd5b82018360208201111561014a57600080fd5b8035906020019184600183028401116401000000008311171561016c57600080fd5b91908080601f016020809104026020016040519081016040528093929190818152602001838380828437600092019190915250929550610538945050505050565b6101ca600480360360208110156101c357600080fd5b503561072f565b60405180868152602001856001600160a01b03166001600160a01b03168152602001806020018060200184151515158152602001838103835286818151815260200191508051906020019080838360005b8381101561023357818101518382015260200161021b565b50505050905090810190601f1680156102605780820380516001836020036101000a031916815260200191505b50838103825285518152855160209182019187019080838360005b8381101561029357818101518382015260200161027b565b50505050905090810190601f1680156102c05780820380516001836020036101000a031916815260200191505b5097505050505050505060405180910390f35b6102db61087b565b60408051918252519081900360200190f35b6102f5610881565b600082815260016020818152604092839020835160a08101855281548152818401546001600160a01b0316818401526002808301805487516101009782161597909702600019011691909104601f8101859004850286018501875280865291959294928601939091908301828280156103af5780601f10610384576101008083540402835291602001916103af565b820191906000526020600020905b81548152906001019060200180831161039257829003601f168201915b505050918352505060038201805460408051602060026001851615610100026000190190941693909304601f81018490048402820184019092528181529382019392918301828280156104435780601f1061041857610100808354040283529160200191610443565b820191906000526020600020905b81548152906001019060200180831161042657829003601f168201915b50505091835250506004919091015460ff16151560209182015260808201805115905260008481526001808352604091829020845181558484015191810180546001600160a01b0319166001600160a01b0390931692909217909155908301518051939450849391926104be926002850192909101906108bb565b50606082015180516104da9160038401916020909101906108bb565b50608091820151600491909101805460ff191691151591909117905581015160408051848152911515602083015280517fe21fa966ca5cd02748c0752352d18c48165e61cb55b4c29cccf924b5a95fcff19281900390910190a15050565b6000805460019081018083556040805160a0810182528281526001600160a01b0388811660208084019182528385018a8152606085018a9052608085018990529588528681529390962082518155955194860180546001600160a01b0319169590911694909417909355905180519293926105b992600285019201906108bb565b50606082015180516105d59160038401916020909101906108bb565b5060808201518160040160006101000a81548160ff0219169083151502179055509050507fa02cb0290b09349ac40636f3da1a607a0bae5767b1e537a83d33ec394d663b89600054848484600060405180868152602001856001600160a01b03166001600160a01b03168152602001806020018060200184151515158152602001838103835286818151815260200191508051906020019080838360005b8381101561068b578181015183820152602001610673565b50505050905090810190601f1680156106b85780820380516001836020036101000a031916815260200191505b50838103825285518152855160209182019187019080838360005b838110156106eb5781810151838201526020016106d3565b50505050905090810190601f1680156107185780820380516001836020036101000a031916815260200191505b5097505050505050505060405180910390a1505050565b6001602081815260009283526040928390208054818401546002808401805488516101009882161598909802600019011691909104601f810186900486028701860190975286865291956001600160a01b039091169492938301828280156107d85780601f106107ad576101008083540402835291602001916107d8565b820191906000526020600020905b8154815290600101906020018083116107bb57829003601f168201915b5050505060038301805460408051602060026001851615610100026000190190941693909304601f81018490048402820184019092528181529495949350908301828280156108685780601f1061083d57610100808354040283529160200191610868565b820191906000526020600020905b81548152906001019060200180831161084b57829003601f168201915b5050506004909301549192505060ff1685565b60005481565b6040518060a001604052806000815260200160006001600160a01b0316815260200160608152602001606081526020016000151581525090565b828054600181600116156101000203166002900490600052602060002090601f016020900481019282601f106108fc57805160ff1916838001178555610929565b82800160010185558215610929579182015b8281111561092957825182559160200191906001019061090e565b50610935929150610939565b5090565b61095391905b80821115610935576000815560010161093f565b9056fea265627a7a72315820d43c829e7101cfded176fc3461702a943b2e91432f175333b36a77f0e45483eb64736f6c63430005100032",
  "source": "// SPDX-License-Identifier: MIT\r\npragma solidity >=0.4.21 <8.10.0;\r\n\r\ncontract TodoList {\r\n  uint public taskCount = 0;\r\n\r\n  struct Task {\r\n    uint id;\r\n    address createdBy;\r\n    string title;\r\n    string description;\r\n    bool completed;\r\n  }\r\n\r\n  mapping(uint => Task) public tasks;\r\n\r\n  event TaskCreated(\r\n    uint id,\r\n    address createdBy,\r\n    string title,\r\n    string description,\r\n    bool completed\r\n  );\r\n\r\n  event TaskCompleted(\r\n    uint id,\r\n    bool completed\r\n  );\r\n\r\n  function createTask(address _createdBy, string memory _title, string memory _description) public {\r\n    taskCount ++;\r\n    tasks[taskCount] = Task(taskCount, _createdBy, _title, _description, false);\r\n    emit TaskCreated(taskCount, _createdBy, _title, _description, false);\r\n  }\r\n\r\n  function toggleCompleted(uint _id) public {\r\n    Task memory _task = tasks[_id];\r\n    _task.completed = !_task.completed;\r\n    tasks[_id] = _task;\r\n    emit TaskCompleted(_id, _task.completed);\r\n  }\r\n\r\n}\r\n",
  "sourcePath": "C:\\Users\\sjkch\\Projects\\school\\eth-todo\\contracts\\TodoList.sol",
  "compiler": {
    "name": "solc",
    "version": "0.5.16+commit.9c3226ce.Emscripten.clang"
  },
  "schemaVersion": "3.4.7",
  "updatedAt": "2022-05-05T23:17:50.398Z",
  "networkType": "ethereum",
  "devdoc": {
    "methods": {}
  },
  "userdoc": {
    "methods": {}
  }
}